:100000000200713200000000000000320000000019
:10001000000000320000000000000032000000007C
:10002000000000320000000000000032000000006C
:100030000000003200000000000000021329000050
:10004000000000020F5E000000000032000000000F
:10005000000000320000000000000032000000003C
:100060000000003200000000000000020FDA020170
:10007000F7758185123BFBE582600302006E79040F
:10008000E94400601B7A0190413F78A775A002E423
:1000900093F2A308B8000205A0D9F4DAF275A0FF24
:1000A000E478FFF6D8FD7800E84400600A7900752E
:1000B000A000E4F309D8FC78A7E84402600C7903B7
:1000C000900000E4F0A3D8FCD9FA750D00750E007D
:1000D00075337575343E75357F75363EE4F51AF522
:1000E0001BE4F540F54102006EAF82BFA502800A15
:1000F000BFA6028009BFA70E8008900001229000D1
:1001000002229000042290000022AF82BFA800507B
:10011000030201CFEF243D50030201CFEF2458FF2B
:10012000240A83F582EF241F83F583E47363676BEE
:100130006F737F878B838F9397A3A7ABAFB3B7C33F
:10014000777BBBBF9B9FC7CB01010101010101016F
:10015000010101010101010101010101010101018F
:100160000101019000E2229000E9229000EA229031
:1001700000B5229000B6229000B3229000B42290E5
:1001800000B7229000CC229000CD229001832290D3
:10019000018A22900192229001942290019F229044
:1001A00001CB22900221229002232290022422904D
:1001B000022522900226229002272290006F229090
:1001C00000702290022A2290029F229002A0229088
:1001D000000022120F5A120EDD120F9D1229C212B8
:1001E0000483120ECE1210D543B54043B94043B537
:1001F0004085B9B9D2AF221201D374FFC0E0743B7D
:10020000C0E07480C0E012344115811581158174FD
:100210000CC0E0743CC0E07480C0E0123441158131
:10022000158115819003E8120EF4122C3B121FCF9A
:10023000122DE29003E8120EF475B100122C4C124C
:100240002DB41207F280F2AF82BFA502800ABFA6CA
:10025000028009BFA70E80089000012290000222B0
:100260009000042290000022AF82BFA80050030239
:10027000032DEF243D500302032DEF2458FF240AE1
:1002800083F582EF241F83F583E473C1C5C9CDD103
:10029000DDE5E9E1EDF1F50105090D111521D5D9EE
:1002A000191DF9FD252902020202020202020202C0
:1002B0000202030303030303030202030302020314
:1002C000039000E2229000E9229000EA229000B51B
:1002D000229000B6229000B3229000B4229000B782
:1002E000229000CC229000CD229001832290018A9E
:1002F00022900192229001942290019F229001CBA2
:100300002290022122900223229002242290022590
:1003100022900226229002272290006F22900070E5
:100320002290022A2290029F229002A02290000096
:1003300022022D5D022D7AAE82AF839002A7E0FCEF
:10034000A3E0FDEEB50405EFB50501229002A7EE8E
:10035000F0EFA3F09000007401F0900001EEF0EFD8
:10036000A3F0900000022D97AE82AF839002A9E027
:10037000FCA3E0FDEEB50405EFB50501229002A94E
:10038000EEF0EFA3F09000007402F0900001EEF0A8
:10039000EFA3F0900000022D97AF82BFA502800A64
:1003A000BFA6028009BFA70E80089000012290001E
:1003B00002229000042290000022AF82BFA80050C9
:1003C0000302047FEF243D500302047FEF2458FF13
:1003D000240A83F582EF241F83F583E47313171B2C
:1003E0001F232F373B333F434753575B5F6367738D
:1003F000272B6B6F4B4F777B040404040404040425
:1004000004040404040404040404040404040404AC
:100410000404049000E2229000E9229000EA229075
:1004200000B5229000B6229000B3229000B4229032
:1004300000B7229000CC229000CD22900183229020
:10044000018A22900192229001942290019F229091
:1004500001CB22900221229002232290022422909A
:10046000022522900226229002272290006F2290DD
:1004700000702290022A2290029F229002A02290D5
:10048000000022750800750900750A007E007F00D3
:10049000C3EE9410EF64809480501FEE2403F58225
:1004A000EF3400F583E4F0EE2413F582EF3400F529
:1004B00083E4F00EBE00D90F80D622E5822403F536
:1004C00082E43400F583E0F5822285098222E58208
:1004D000C42354E0FF24B4FDE4343EFEE50B250BB9
:1004E000FC2DF582E43EF583E493FDA3E493FEE561
:1004F0000C60067A3C7B3C80047A3F7B3C8B017B22
:1005000080C007C006C005C004C002C001C003C04F
:1005100005C006742BC0E0743CC0E0EBC0E01234B0
:1005200041E58124F8F581D004D005D006D0078DAF
:10053000028E03C3EA9420EB9452403F743F9A74B6
:10054000529B4037E50C60098D03741F5BF50A80F0
:100550000C90002575F000120E3C750A00AA0A7B6B
:1005600000C002C0037444C0E0743CC0E07480C0AA
:10057000E0123441E58124FBF58122E50A6033E590
:100580000A75F0A0A424B4FA743E35F0FBEF2AFA01
:10059000E43BFBEC2AF582E43BF583E493FCA3E423
:1005A00093FF8C028F03BA0105BB000280048C0507
:1005B0008F06850C198D828E83C006C005122D1FF3
:1005C000E582D005D006700122850C1C8D828E83B9
:1005D000C006C005123230E582D005D00670012277
:1005E0008D048E07C3EC94E0EF9400403E74E79CCA
:1005F000E49F4037E50C60198D0374075BF5F00547
:10060000F07401800225E0D5F0FBF582120E8B809C
:10061000178D0374075BF5F005F07401800225E087
:10062000D5F0FBF582120E90020A00C3EC9404EFA1
:100630009400402674A49CE49F401FE50C600D8D3F
:100640001290002575F000120DCC800B8D139000D8
:100650002575F000120E04020A00C3EC94A5EF9475
:1006600000403F74A79CE49F4038E50C602E8D034A
:10067000BBA502800ABBA602800BBBA714800C7A24
:10068000017B0080107A027B00800A7A047B008064
:10069000047A007B008A828B830203379000000279
:1006A0000337C3EC94A8EF940050030207D8C37437
:1006B000C29CE49F50030207D8E50C70030207D1E7
:1006C0008D07BFA80050030207C4EF243D5003026A
:1006D00007C4EF2458FF240A83F582EF241F83F513
:1006E00083E4731920272E354A585E51646A70825C
:1006F000888E949AA0B23C43A6AC767CB8BE07071D
:100700000707070707070707070707070707070779
:100710000707070707070707077CE27F000207C8EC
:100720007CE97F000207C87CEA7F000207C87CB52D
:100730007F000207C87CB67F000207C87CB37F0039
:100740000207C87CB47F000207C87CB77F0002079D
:10075000C87CCC7F000207C87CCD7F00806A7C8388
:100760007F0180647C8A7F01805E7C927F0180585B
:100770007C947F0180527C9F7F01804C7CCB7F01E9
:1007800080467C217F0280407C237F02803A7C244B
:100790007F0280347C257F02802E7C267F02802889
:1007A0007C277F0280227C6F7F00801C7C707F0012
:1007B00080167C2A7F0280107C9F7F02800A7CA0AA
:1007C0007F0280047C007F008C828F83120368800C
:1007D0000690000002036822C005C0067458C0E0FD
:1007E000743CC0E07480C0E0123441E58124FBF524
:1007F00081221204CAE5827003F58222900023E46C
:10080000F0FFBF10005039900023E0FEE07031EFA0
:100810002413F582E43400F583E0FD8F82C007C025
:1008200006C0051204BBAC82D005D006D007EC622E
:1008300005EE4205900023ED24FFE433F00F80C263
:10084000900023E0FFE07005F5098F82227F00BF52
:100850001000506C8F82C0071204BBAE82D007EF2D
:100860002413F582E43400F583E0FDEE6205ED60CB
:100870004C9000247401F07C00BC050050339000C3
:1008800024E0FB5D6021EE5203EB24FFE433F50C22
:100890008F0B8C82C007C006C005C0041204CED0E6
:1008A00004D005D006D0070C900024E025E0F080AD
:1008B000C8EF2413F582E43400F583EEF00F808F47
:1008C000750900900023E0F58222122DE5E50970FC
:1008D000238508821229398508821229A3AF82C094
:1008E000071229B5D007E5082403F582E43400F5A2
:1008F00083EFF4F085084290006175F000122DF747
:1009000074F125084007E50804F50880067508001D
:1009100075090102300BAF82BFA502800ABFA60293
:100920008009BFA70E80089000012290000222904B
:1009300000042290000022AF82BFA80050030209E9
:10094000FCEF243D50030209FCEF2458FF240A83E6
:10095000F582EF241F83F583E4739094989CA0ACF8
:10096000B4B8B0BCC0C4D0D4D8DCE0E4F0A4A8E8EB
:10097000ECC8CCF4F80909090909090909090909A8
:1009800009090909090909090909090909090909D7
:100990009000E2229000E9229000EA229000B52225
:1009A0009000B6229000B3229000B4229000B722AB
:1009B0009000CC229000CD229001832290018A22C7
:1009C000900192229001942290019F229001CB22CB
:1009D00090022122900223229002242290022522BA
:1009E000900226229002272290006F22900070220F
:1009F00090022A2290029F229002A02290000022C0
:100A00001211C5AF82BF0109900063E06003020AC2
:100A100062020A14900025E50DF0E50D450E9000E8
:100A200025F075752D7576007577007578087579E0
:100A30000090002575F000123383E5828583F04530
:100A4000F0601E75752575760075770075780875E8
:100A5000790090002D75F00012329A900025020363
:100A600031229000357406F0900036E50DF0E50D6A
:100A7000450E900036F075754B75760075770075EC
:100A8000781675790090003575F000123383E58291
:100A90008583F045F0601E757535757600757700B5
:100AA00075781675790090004B75F00012329A90A7
:100AB000003502033422AD82AE83AFF074022DFD07
:100AC000E43EFE7C06C007C006C005C0041211C586
:100AD000AB82D004D005D006D007BB010E900063D6
:100AE000E060087D377E007F007C147B008C021C58
:100AF000EA60158D828E838FF0123BA9FAA3AD8236
:100B0000AE83EA60E80B80E58B8222AD82AE83AFD4
:100B1000F0C007C006C0051211C5AC82D005D006D2
:100B2000D007BC0142900063E0603C7C00BC140034
:100B30005012EC2437FAE43400FB8A828B83E07095
:100B4000030C80E98C03EBC40354F8FBEC2437F569
:100B500082E43400F583E0F582C003120EA2AC8279
:100B6000D003EC4BF5822274022DFDE43EFE8D8213
:100B70008E838FF0123BA9F58222AD82AE83AFF057
:100B8000E50F7003F58222C007C006C0051211C52B
:100B9000AC82D005D006D007BC014B900063E0606A
:100BA00045E50FC423541FFCBC14005035EC24371A
:100BB000F582E43400F583E50F5407FC8CF005F072
:100BC0007C017B008006EC2CFCEB33FBD5F0F7E0DE
:100BD000F97A00E95204EA5203EC4B24FFE433F5BE
:100BE00082227582002274022DFDE43EFE7B007C91
:100BF00000C3EB9406EC64809480501FEB2DF8EC5E
:100C00003EF98F02888289838AF0123BA9B50F04CE
:100C1000758201220BBB00D90C80D675820022851B
:100C2000827685837785F0787CFF74022576F9E4F7
:100C30003577FAAB7889798A7A8B7B7800C3E86458
:100C40008094865033E829FDE43AFE8B078D828E2E
:100C5000838FF0123BA9B57502801DBCFF17E825F4
:100C600079FDE4357AFEAF7B8D828E838FF0123B67
:100C7000A9700288040880C5B80622BCFF0122744E
:100C8000022576FDE43577FEAF78EC2DFCE43EFBE3
:100C90008F028C828B838AF0E57502330E22AD823F
:100CA000AE83AFF074022DFDE43EFE8D778E788F1B
:100CB0007975760074FA25764044C005C006C007F1
:100CC000E5762577F8E43578F9AF79888289838FDE
:100CD000F0123BA9B575028008D007D006D0058078
:100CE00019D007D006D005E5762DF8E43EF98F043B
:100CF000888289838CF0E412330E057680B622ADAB
:100D000082AE83AFF0E510C423541FFCBC14005026
:100D10003674022DFDE43EFEEC2DFCE43EFB8F021A
:100D2000E5105407F5F005F07401800225E0D5F0D8
:100D3000FBFF8C828B838AF0123BA942078C828B4B
:100D4000838AF0EF02330EAE107F00C006C0077436
:100D500073C0E0743CC0E07480C0E0123441E581AF
:100D600024FBF58122AD82AE83AFF0E511C423549C
:100D70001FFCBC1400503774022DFDE43EFEEC2D28
:100D8000FCE43EFB8F02E5115407F5F005F0740119
:100D9000800225E0D5F0FBF4FF8C828B838AF01271
:100DA0003BA952078C828B838AF0EF02330EAE117F
:100DB0007F00C006C0077491C0E0743CC0E074803E
:100DC000C0E0123441E58124FBF58122AD82AE837F
:100DD000AFF0C007C006C0051211C5AC82D005D067
:100DE00006D007BC0112900063E0600C85121090E1
:100DF000003575F000020CFF8512758D828E838F91
:100E0000F0020C1FAD82AE83AFF0C007C006C00574
:100E10001211C5AC82D005D006D007BC01129000DB
:100E200063E0600C85131190003575F000020D65CC
:100E30008513758D828E838FF0020C9EAD82AE83FA
:100E4000AFF0C007C006C0051211C5AC82D005D0F6
:100E500006D007BC0118900063E06012757500753C
:100E6000761475770090003775F0000232EF740247
:100E70002DFDE43EFE7575007576067577008D8252
:100E80008E838FF00232EF850D8222E582420D22A1
:100E9000E582F4520D2285820D22750D0022850E09
:100EA0008222AF827E00EFC4540FFD60048D077E66
:100EB00004EF0303543FFD60088D078E0574022D77
:100EC000FEEFC31360058E07EF04FE8E82229000B2
:100ED00061E4F0900062F090006304F02275B208C3
:100EE00075BC02E5BC20E20575B10080F643BC018B
:100EF00043B20422AE82AF837C007D00C3EC9EED42
:100F00009F501D9003E8C007C006C005C004120F23
:100F100021D004D005D006D0070CBC00DF0D80DC4A
:100F200022AE82AF837C007D00C3EC9EED9F501FFC
:100F300075B100000000000000000000000000008B
:100F400000000000000000000CBC00DD0D80DA2273
:100F5000C2AF75F0A5745A02FF00758F0122C0213F
:100F6000C0E0C0F0C082C083C007C006C005C00496
:100F7000C003C002C001C000C0D075D0001208CAB2
:100F8000D0D0D000D001D002D003D004D005D006FC
:100F9000D007D083D082D0F0D0E0D0213275D840B5
:100FA00075ADFF75AEE675AF0075870075AB007562
:100FB000AC0053A9BFC20010D902800010D8028033
:100FC0000043A94022AF8253A9BFD2008FAA43A9F0
:100FD0004030000575B10080F82253A9BF10D90236
:100FE0008002C20043A94032020FC5AF82BFA502F2
:100FF000800ABFA6028009BFA70E800890000122C8
:10100000900002229000042290000022AF82BFA82C
:101010000050030210D1EF243D50030210D1EF2401
:1010200058FF240A83F582EF241F83F583E4736558
:10103000696D717581898D85919599A5A9ADB1B5B8
:10104000B9C5797DBDC19DA1C9CD1010101010107A
:101050001010101010101010101010101010101090
:1010600010101010109000E2229000E9229000EA87
:10107000229000B5229000B6229000B3229000B4D6
:10108000229000B7229000CC229000CD22900183C4
:101090002290018A22900192229001942290019F35
:1010A000229001CB2290022122900223229002243E
:1010B0002290022522900226229002272290006F81
:1010C000229000702290022A2290029F229002A079
:1010D0002290000022900264E4F0900265F09002F9
:1010E00066F0900267F0900268F0C20190026AE434
:1010F000F0900269F0F522F523F524F525F526F5A3
:101100009675945F7595117591C043A90122AE82C1
:10111000AF837D00BDFF00501AE59930E2159000C5
:1011200028C007C006C005120F21D005D006D00781
:101130000D80E17D007531088E828F838DF0121D48
:1011400066539CE0439C0843990422AE82AF837DA2
:1011500000BDFF00501AE59A30E215900028C00744
:10116000C006C005120F21D005D006D0070D80E1C2
:101170007D007532168E828F838DF0121DCF539DA8
:1011800080439D16439A0422AE82AF837D00BDFF4B
:1011900000501AE59A30E215900028C007C006C03A
:1011A00005120F21D005D006D0070D80E17D007516
:1011B00032038E828F838DF0121DCF539D80439D0D
:1011C00003439A0422900267E0F58222C2AF9002A4
:1011D0006B75F000121D48D2AF90026BE0FF9002D9
:1011E0006CE0FE8F05BD0002802CBD01030212766B
:1011F000BF02030212ABBF21030212D8BF800280DC
:1012000050BF8103021286BF82030212C8BFA1032E
:10121000021300021322BE01028014BE03028015D5
:10122000BE05028016BE07028017BE091D801590FC
:10123000026B02144090026B02146E90026B021457
:10124000050215EE90026B0215484397084397027A
:1012500022BE0002800ABE0602800BBE0811800C6E
:1012600090026B0215F590026B02171B021AD04315
:10127000970843970222BE0B0690026B0215A0430B
:10128000970843970222BE0002800ABE0602800B26
:10129000BE0A11800C90026B02163090026B02178E
:1012A0001B021AE843970843970222BE01028005F9
:1012B000BE030E800690026B02149C90026B021417
:1012C000FA43970843970222BE000690026B02166B
:1012D0007343970843970222BE0902800ABE0A029E
:1012E000800BBE0B14800C90026B021B0490026BEF
:1012F000021B5F90026B021B8143970843970222F7
:10130000BE0102800ABE02028008BE030E800602F1
:101310001AFD021B6F90026B021BB643970843979E
:10132000022243970843970222C021C0E0C0F0C0C8
:1013300082C083C007C006C005C004C003C002C08D
:1013400001C000C0D075D000AF92AE93EF6056EFF1
:1013500030E3065392F70213E85392EF53929FEF54
:1013600030E70953927F1210D50213E8EF30E408FA
:101370005392EF1211CC8070EF30E2055392FB8054
:1013800067EF30E1055392FD805EEF30E05A5392F3
:10139000FE4391200000000000005391DF1210D5A1
:1013A0004397018043EE6040EE30E6085393BF431D
:1013B0009A018034EE30E5055393DF802BEE30E464
:1013C0000B5393EF121BE4439701801CEE30E205B0
:1013D0005393FB8013EE30E1055393FD800AEE300A
:1013E000E0065393FE121C27D0D0D000D001D002CB
:1013F000D003D004D005D006D007D083D082D0F05F
:10140000D0E0D02132AE82AF8390026AE4F0740261
:101410002EFEE43FFF8E828F83E0FCA3E04C600849
:101420009002647401F08005900264E4F08E828F73
:1014300083E0900265F0539BF043970243970422A8
:10144000AE82AF8390026AE4F08E828F83E0540F05
:10145000600280138E828F83A3A3E0FEA3E0FFBE11
:101460000105BF0002C201539BF043970422AE82E4
:10147000AF8390026AE4F08E828F83E0540F6002A3
:1014800080138E828F83A3A3E0FEA3E0FFBE01053D
:10149000BF0002D201539BF043970422AE82AF8378
:1014A00090026AE4F08E828F83E0FD53050FBD0247
:1014B000428E828F83A3A3E0FCA3E04C70358E8222
:1014C0008F83A3A3A3A3E0FEA3E0FF4E700853976E
:1014D000F75397FD801DBE8108BF00055399F78023
:1014E00012BE8208BF0005539AF78007439708434E
:1014F000970222539BF043970422AE82AF8390025F
:101500006AE4F08E828F83E0FD53050FBD022B8EBF
:10151000828F83A3A3A3A3E0FEA3E0FFBE8108BF45
:101520000005439908801ABE8208BF0005439A0847
:10153000800F439708439702800743970843970219
:1015400022539BF043970422AE82AF8390026AE459
:10155000F0E596603E8E828F83A3A3E0FEA3E0FFBA
:101560004E600A8E048F05BC0121BD001E900266EC
:10157000EEF0EE60089002647402F080069002645F
:101580007401F0539BF0439704800E4397084397F0
:10159000028006439708439702539BF04397042227
:1015A000AE82AF8390026AE4F08E828F83A3A3E0C1
:1015B000FCA3E04C70318E828F83A3A3A3A3E0FE33
:1015C000A3E0FF4E700A539BF04397044397022217
:1015D000BE010DBF000A539BF043970443970222BC
:1015E0004397084397022243970843970222439761
:1015F0000843970222AE82AF8390026A7402F08E93
:10160000828F83E0540F6002801F30010890110820
:101610007402F08005901108E4F0901109E4F05391
:101620009BF0439B0243970422439708439702226F
:10163000AE82AF83E0FD53050FBD01308E828F83F4
:10164000A3A3A3A3E0FEA3E0FF4E6006BE0116BF66
:101650000013901108E4F0901109F0539BF0439BA4
:101660000243970422439708439702224397084373
:10167000970222AE82AF83E0FD53050FBD020280C8
:10168000030217148E828F83A3A3A3A3E0FEA3E01B
:10169000FFBE801BBF0018AC97530402E4A2E713FF
:1016A000CC13CC901108ECF0901109E4F0805BBEF3
:1016B0008127BF0024AC99530408E423CCC42354ED
:1016C0001F6CCC541FCC6CCC30E40244E090110869
:1016D000ECF0901109E4F08031BE8227BF0024AE07
:1016E0009A530608E423CEC423541F6ECE541FCE53
:1016F0006ECE30E40244E0901108EEF0901109E45F
:10170000F0800743970843970222539BF0439B02C4
:1017100043970422439708439702228582278583B3
:1017200028A3A3E0FCA3E0FBBB0141903DD0E493E0
:10173000FAA3E493FD8A758D767577808A828D830E
:10174000E493FA8A7875790090006475F00012329B
:101750009A9002737464F07400A3F0E4A3F0900014
:1017600064E0900276F0E4A3F0021A8DBB020280DE
:101770000302188A903DD4E493FDC3EC9D4003021C
:10178000188A903DD5E493FAA3E493FDEC75F0023A
:10179000A42AF582ED35F0F583E493FAA3E493FDF2
:1017A00074092AF529E43DF52A8A008D0188758996
:1017B000767577808A828D83E493F98978757900CC
:1017C00090006475F000C005C00212329AD002D0B9
:1017D000058A828D83E4932464F52BE43400F52C90
:1017E000A829A92A852B2D852C2E752F0088828962
:1017F00083E493FAA3E493FF8A758F767577808AE2
:10180000828F83E493FA8A78757900852D82852EFC
:1018100083852FF0C001C00012329AD000D0018819
:10182000828983E493FEA3E493FF8E828F83E49303
:10183000252BF52BE4352CF52C740228F8E439F926
:1018400088828983E493FEA3E4934E7097900066A8
:10185000E0FEA3E04E7013E52BC39464FEE52C94E8
:1018600000FF900066EEF0EFA3F09002737464F056
:101870007400A3F0E4A3F0900066E0FEA3E0FF9004
:101880000276EEF0EFA3F0021A8DE4BB030104FF31
:10189000603BEC70387575C675763D757780903D08
:1018A000C6E493FE8E7875790090006475F000129E
:1018B000329A9002737464F07400A3F0E4A3F09081
:1018C0000064E0900276F0E4A3F0021A8DEF70035A
:1018D00002197F7F00EC24FFFDEF34FFFE903DD71F
:1018E000E493F97A00C3ED99EE64808AF063F080A6
:1018F00095F0400302197F903DD8E493FDA3E49353
:10190000FE1CBCFF011FEC2CFCEF33FFEC2DF5821D
:10191000EF3EF583E493FEA3E493FF90006474022A
:10192000F090006504F074012465FCE43400FD8E41
:10193000828F83E493FA602C0EBE00010F8C828D9F
:1019400083EAF074012CF9E43DFA89828A83E4F099
:101950000429FCE43AFD900064E0FA0A0A9000646D
:10196000EAF080CB9002737464F07400A3F0E4A3F7
:10197000F0900064E0900276F0E4A3F0021A8DBBD0
:101980002276852782852883A3A3A3A3E0FE702F58
:101990009002767444F0E4A3F07575AF75763C75EB
:1019A0007780757844F579900064F5F012329A905A
:1019B00002737464F07400A3F0E4A3F0021A8DBE05
:1019C000012F9002767476F0E4A3F07575F37576C6
:1019D0003C757780757876F579900064F5F0123271
:1019E0009A9002737464F07400A3F0E4A3F0021AF6
:1019F0008D43970843970222BB21028003021A8677
:101A0000852782852883A3A3A3A3E0FE703775757D
:101A10008475763D757780903D84E493FF8F78756B
:101A2000790090006475F00012329A900273746429
:101A3000F07400A3F0E4A3F0900064E0900276F06C
:101A4000E4A3F08048BE013775759D75763D7577C6
:101A500080903D9DE493FF8F7875790090006475C8
:101A6000F00012329A9002737464F07400A3F0E4F0
:101A7000A3F0900064E0900276F0E4A3F0800E43BF
:101A800097084397022243970843970222852782AB
:101A9000852883A3A3A3A3A3A3E0FEA3E0FF900252
:101AA00076E0FCA3E0FDC3EE9CEF9D40048C068D28
:101AB00007900273E0FBA3E0FCA3E0FD8E758F7638
:101AC0008B828C838DF0121C50121C604397042271
:101AD00090026A7402F0900266E0901108F0539B45
:101AE000F0439B014397042290026A7402F0901124
:101AF00008E4F0539BF0439B01439704224397086B
:101B000043970222AE82AF83A3A3E0FCA3E0FABA1C
:101B100002028005BA0341802D8E828F83A3A3A386
:101B2000A3E0FAA3E04A703674062EF582E43FF58E
:101B300083E0FEA3E0FFBE0125BF002290026A748D
:101B400004F0439701227D00BC0513BD00109002F4
:101B50006A7405F04397012243970843970222A332
:101B6000A3E0A3E0900269F0539BF0439704229016
:101B70000269E0901108F0539BF0439B01439704E6
:101B800022AE82AF83A3A3A3A3E0FCA3E0FD4C702D
:101B90000D8E828F83A3A3E0900267F08011BC01B9
:101BA0000EBD000B8E828F83A3A3E0900268F053DA
:101BB0009BF043970422A3A3A3A3E0FEA3E0FF4E60
:101BC000700A900267E0901108F0800EBE010BBF12
:101BD0000008900268E0901108F0539BF0439B01CD
:101BE0004397042290026AE0FFBF041490026AE463
:101BF000F0901100E0900061F0539BF043970422B5
:101C0000BF051890026AE4F0901100E0FFBF0516CE
:101C1000901101E0FFBF750E020F5090026AE4F0D0
:101C2000539BF04397042290026AE0FFBF010A121F
:101C30001C6043970443970122BF02074397014367
:101C4000970822439708439701900265E0F5962292
:101C500085822485832585F0268575228576232235
:101C6000E5224523700D90026A7402F0539BF085C3
:101C70009B9B22AE22AF23C374089EE49F503790F3
:101C8000026A7401F07530088524828525838526D3
:101C9000F0121CFDAC22AD23EC24F8FCED34FFFD6A
:101CA0008C228D2374082524F524E43525F525534D
:101CB0009BF0439B0822BE0824BF002190026A7457
:101CC00001F07530088524828525838526F0121C55
:101CD000FDE4F522F523539BF0439B082290026A12
:101CE0007402F08522308524828525838526F012B2
:101CF0001CFD539BF0AF9BE5224FF59B22AD82AEBE
:101D000083AFF0E53024F7502AAB307C00C003C02D
:101D10000474F1C0E0743DC0E07480C0E074DAC0C7
:101D2000E0743DC0E07480C0E0123441E58124F8E5
:101D3000F581228D758E768F778530787579009054
:101D4000110875F00002329AAD82AE83AFF075755E
:101D5000007576117577007578087579008D828E1B
:101D6000838FF002329AAD82AE83AFF0E53124EF7B
:101D7000502AAB317C00C003C0047403C0E0743E41
:101D8000C0E07480C0E074DAC0E0743DC0E07480EC
:101D9000C0E0123441E58124F8F581228D758E76FC
:101DA0008F7785317875790090112075F0000232B7
:101DB0009AAD82AE83AFF0757510757611757700A8
:101DC0007578107579008D828E838FF002329AAD0E
:101DD00082AE83AFF0E53224BF502AAB327C00C024
:101DE00003C0047415C0E0743EC0E07480C0E074A9
:101DF000DAC0E0743DC0E07480C0E0123441E58197
:101E000024F8F581228D758E768F778532787579F5
:101E10000090118075F00002329AAD82AE83AFF06F
:101E20007575407576117577007578407579008DF8
:101E3000828E838FF002329A85821685831785F011
:101E400018C2AFC285900003120F21C2FC7B007C38
:101E500000C3EB9514EC64808515F063F08095F079
:101E6000503FEB2516F8EC3517F9AA1888828983BC
:101E70008AF0123BA9F582C004C003C002C001C0B1
:101E800000121EAAAF82D000D001D002D003D0042D
:101E9000888289838AF0EF12330E0BBB00B30C806B
:101EA000B0D2FCD287D285D2AF22AF827E007D0035
:101EB000BD0800502D8E04EC2CFEC2B700000000BF
:101EC00000000000EF30E704D2878002C28730862E
:101ED00003430601D2B7000000008F04EC2CFF0D75
:101EE00080CE8E8222AF82BFA502800ABFA602806A
:101EF00009BFA70E800890000122900002229000E6
:101F0000042290000022AF82BFA8005003021FCB22
:101F1000EF243D5003021FCBEF2458FF240A83F522
:101F200082EF241F83F583E4735F63676B6F7B83AA
:101F3000877F8B8F939FA3A7ABAFB3BF7377B7BBDD
:101F4000979BC3C71F1F1F1F1F1F1F1F1F1F1F1F61
:101F50001F1F1F1F1F1F1F1F1F1F1F1F1F1F1F9020
:101F600000E2229000E9229000EA229000B522903F
:101F700000B6229000B3229000B4229000B72290C5
:101F800000CC229000CD229001832290018A2290E1
:101F90000192229001942290019F229001CB2290E5
:101FA00002212290022322900224229002252290D4
:101FB0000226229002272290006F22900070229029
:101FC000022A2290029F229002A022900000221258
:101FD00028B8900006120EF490029875F0001223B3
:101FE000269000C8120F2185333D85343E753F8011
:101FF0007582001227B590000C120EF412268D90F7
:102000000020120EF485353D85363E753F80758281
:10201000011227B590000C120EF412268D90001EAE
:10202000120EF47538007582001223C0900014124D
:102030000EF47538007582001223C090000F120E46
:10204000F4E4F53BF53C9000001226C490001E120B
:102050000EF40222CDAE82AF83E090029AF08E821F
:102060008F83A3A3E090029BF08E828F83A3A3A310
:10207000E090029CF08E828F83A3A3A3A3E0900242
:102080009DF08E828F83A3A3A3A3A3E090029EF072
:1020900074062EF582E43FF583E090029FF07537D9
:1020A000017E007F00C3EE9406EF64809480501997
:1020B000EE249AFCEF3402FD8C828D83E060037580
:1020C00037000EBE00DF0F80DCE537606190029BB9
:1020D000E4F090029AF5F012240490029B7401F04F
:1020E00090029A75F00012240490029BE4F0900292
:1020F0009AF5F012240490029B7401F090029A75F4
:10210000F00012240490029BE4F090029AF5F01281
:10211000240490029B7401F090029A75F00012243E
:102120000490029BE4F090029AF5F00224049002DD
:102130009A75F000022404AE82AF839002A074016D
:10214000F0FC7D00C3EC9415ED648094805019EC94
:102150002EFAED3FFB8A828B83E060059002A0E4BB
:10216000F00CBC00DF0D80DC9002A0E0FDFB33959D
:10217000E0FCC007C006C005C003C0047450C0E046
:10218000743EC0E07480C0E0123441E58124FBF568
:1021900081D005D006D007ED70030221FE90029B8E
:1021A000E4F090029AF5F012240490029B7401F07E
:1021B00090029A75F00012240490029BE4F09002C1
:1021C0009AF5F012240490029B7401F090029A7523
:1021D000F00012240490029BE4F090029AF5F012B1
:1021E000240490029B7401F090029A75F00012246E
:1021F0000490029BE4F090029AF5F00224048E828F
:102200008F83A3E0FD74022EF539E43FF53A8D8209
:102210000224E0AE82AF83E0FDBD01028005BD0275
:102220002A80128E828F83A3E0F53BA3E0F53C90D9
:1022300000000226C48E828F83A3E0FEA3E0FFE4A9
:10224000F53BF53C8E828F830226C422AD82AE839D
:10225000AFF09002A175F000C007C006C0051223C0
:1022600026D005D006D0079002A2E0FC5304078DCB
:10227000828E838FF0EC12330E0DBD00010E8D8225
:102280008E838FF0123BA9FC9002A2E05460C4033D
:102290005407FB8D828E838FF012330EECB5030151
:1022A000228D828E838FF0123BA9FD7F00C005C076
:1022B00007745FC0E0743EC0E07480C0E012344137
:1022C000E58124FBF581227538000223C090027855
:1022D00074AAF0900279741DF090027A7402F07E74
:1022E000037F00C3EE941FEF648094805013EE24AC
:1022F00078F582EF3402F583E4F00EBE00E50F803E
:10230000E275751F75760090027875F0001228F658
:10231000AF82900297EFF075142075150090027847
:1023200075F000021E38AD82AE83AFF0C007C00664
:10233000C00512283C900064120F2112239FD00583
:10234000D006D007900278E0FCBCBB028004758206
:10235000002275750275760090027A75F000C0074C
:10236000C006C0051228F6AC82D005D006D0079072
:102370000279E0B5040280047582002290027AE0BE
:102380008D828E838FF012330E0DBD00010E9002F0
:102390007BE08D828E838FF012330E758201229046
:1023A000027874FFF0900279F090027AF090027B4C
:1023B000F075140475150090027875F000021E384F
:1023C000AF8290027874AAF09002797403F09002C0
:1023D0007A7401F090027BE538F090027CEFF075A2
:1023E000750575760090027875F0001228F6AF82B8
:1023F00090027DEFF075140675150090027875F067
:1024000000021E38AD82AE83AFF090027874AAF05D
:10241000900279741DF090027A7402F08D828E839E
:102420008FF0123BA990027BF074012DFAE43EFB81
:102430008F048A828B838CF0123BA990027CF0740B
:10244000022DFAE43EFB8F048A828B838CF0123BD0
:10245000A990027DF074032DFAE43EFB8F048A827A
:102460008B838CF0123BA990027EF074042DFAE469
:102470003EFB8F048A828B838CF0123BA990027FF3
:10248000F074052DFDE43EFE8D828E838FF0123BAD
:10249000A9900280F0900281E4F07E0AFFC3EE94DE
:1024A0001FEF648094805013EE2478F582EF34029D
:1024B000F583E4F00EBE00E50F80E275751F7576BA
:1024C0000090027875F0001228F6AF82900297EF24
:1024D000F075142075150090027875F000021E3812
:1024E000E5829002A3F090027874AAF090027974C9
:1024F0001DF090027A7402F09002A3E090027BF04B
:1025000090027CE4F090027DF090027EF090027FD9
:10251000F0900280F0900281F0AE39AF3A8E828F57
:1025200083E0900282F08E828F83A3E0900283F09A
:102530008E828F83A3A3E0900284F08E828F83A388
:10254000A3A3E0900285F08E828F83A3A3A3A3E0D0
:10255000900286F08E828F83A3A3A3A3A3E09002B0
:1025600087F074062EF582E43FF583E0900288F050
:1025700074072EF582E43FF583E0900289F0740839
:102580002EF582E43FF583E090028AF074092EF57F
:1025900082E43FF583E090028BF0740A2EF582E42A
:1025A0003FF583E090028CF0740B2EF582E43FF54A
:1025B00083E090028DF0740C2EF582E43FF583E009
:1025C00090028EF0740D2EF582E43FF583E09002C8
:1025D0008FF0740E2EF582E43FF583E0900290F0C8
:1025E000740F2EF582E43FF583E0900291F07410B1
:1025F0002EF582E43FF583E0900292F074112EF5FF
:1026000082E43FF583E0900293F074122EF582E4A9
:102610003FF583E0900294F074132EF582E43FF5C9
:1026200083E0900295F0900296E4F075751FF576C0
:10263000900278F5F01228F6AF82900297EFF075CD
:10264000142075150090027875F000021E38AF82D4
:1026500090027874AAF09002797403F090027AF0F4
:1026600090027BEFF090027CE4F0757505F57690B2
:102670000278F5F01228F6AF8290027DEFF0751423
:102680000675150090027875F000021E38900278E9
:1026900074AAF09002797401F090027A7404F075D3
:1026A000750375760090027875F0001228F6AF82F7
:1026B00090027BEFF075140475150090027875F0A8
:1026C00000021E38AE82AF8390027874AAF09002A6
:1026D00079740BF090027A7405F090027BE4F0902C
:1026E000027CF090027DF090027EF090027FF090EC
:1026F0000280F08E05900281EDF08F06900282EE4E
:10270000F0AF3B900283EFF0AF3C900284EFF075A6
:10271000750D75760090027875F0001228F6AF827C
:10272000900285EFF075140E75150090027875F023
:1027300000021E38AF8290027874AAF09002797479
:1027400003F090027A23F090027BEFF090027CE499
:10275000F0757505F576900278F5F01228F6AF82DF
:1027600090027DEFF075140675150090027875F0F3
:1027700000021E38AF8290027874AAF09002797439
:1027800003F090027A7407F090027BEFF090027CE5
:10279000E4F0757505F576900278F5F01228F6AF3D
:1027A0008290027DEFF07514067515009002787521
:1027B000F000021E38AF8290027874AAF09002797D
:1027C000741DF090027A7408F090027BEFF0AD3D3A
:1027D000AE3EAF3F7B047C008D828E838FF0123B38
:1027E000A9FA601190027CEAF00DBD00010E0BBB4E
:1027F00000E60C80E38B068C07C3EE941FEF648029
:1028000094805013EE2478F582EF3402F583E4F0DF
:102810000EBE00E50F80E275751F75760090027898
:1028200075F0001228F6AF82900297EFF075142031
:1028300075150090027875F000021E3890027874C9
:10284000AAF09002797403F090027A740AF0900270
:102850007BE4F090027CF0757505F576900278F5D2
:10286000F01228F6AF8290027DEFF0751406751510
:102870000090027875F000021E3890027874AAF079
:102880009002797403F090027A740BF090027BE46A
:10289000F090027CF0757505F576900278F5F012EF
:1028A00028F6AF8290027DEFF07514067515009042
:1028B000027875F000021E3890027874AAF0900237
:1028C000797403F090027A740CF090027BE4F0903B
:1028D000027CF0757505F576900278F5F01228F611
:1028E000AF8290027DEFF0751406751500900278A6
:1028F00075F000021E3885827785837885F0797CB3
:10290000007A007B00C3EA9575EB64808576F063FE
:10291000F08095F0501CEA2577F8EB3578F9AF791F
:10292000888289838FF0123BA92CFC0ABA00D60B4F
:1029300080D37455C39CF58222AF82439020439884
:102940003F43A03F438807EF24F0500122EF2F9030
:10295000295373801E801F80208021802280238045
:102960002480258026802780288029802A802B802B
:102970002C802DC28822C28922C28A22C2A522C2EC
:10298000A422C2A322C2A222C2A122C2A022C29D0C
:1029900022C29C22C29B22C29A22C29922C298229F
:1029A000C29522E5F8C313FF530707E58854184F73
:1029B00044E0F582225390DF5398C053A0C053885F
:1029C000F8221229CC122A1843A90222758C057507
:1029D000A500758C4575A600758C8575BB00758C3A
:1029E000C5758D00758C0075E11C75E22E75E33F91
:1029F00075E43F75E57875E68775E7FE75EE7875E1
:102A0000D90E43F81043B0804380A043D11043E572
:102A10008043E1A043E9402290FF9C7404F090FFC2
:102A200098E4F090FF9D7404F090FF99E4F090FF1B
:102A30009E7404F090FF9AE4F075DE04F5DD75D520
:102A400004F5D2F5C3F5CE75D604F5D3F5C4F5C1BA
:102A500075D704F5D4F5C5F5C290FFBD7404F090A8
:102A6000FFA5E4F090FFEDF090FFD5F090FFBC746F
:102A700004F090FFA4E4F090FFECF090FFD4F0900D
:102A8000FFBB7404F090FFA3E4F090FFEBF090FF25
:102A9000D3F090FFBA7404F090FFA2E4F090FFEA44
:102AA000F090FFD2F090FFB97404F090FFA1E4F031
:102AB00090FFE9F090FFD1F090FFB87404F090FF20
:102AC000A0E4F090FFE8F090FFD0F090FFC3740412
:102AD000F090FFABE4F090FFF3F090FFDBF090FF9D
:102AE000C27404F090FFAAE4F090FFF2F090FFDAD5
:102AF000F090FFC17404F090FFA9E4F090FFF1F0B2
:102B000090FFD9F090FFC07404F090FFA8E4F0901B
:102B1000FFF0F090FFD8F090FFBF7404F090FFA793
:102B2000E4F090FFEFF090FFD7F090FFBE7404F058
:102B300090FFA6E4F090FFEEF090FFD6F090FFC972
:102B40007404F090FFB1E4F090FFF9F090FFE1F031
:102B500022AF82BFA502800ABFA6028009BFA70ECE
:102B60008008900001229000022290000422900030
:102B70000022AF82BFA8005003022C37EF243D5043
:102B800003022C37EF2458FF240A83F582EF241F19
:102B900083F583E473CBCFD3D7DBE7EFF3EBF7FB1E
:102BA000FF0B0F13171B1F2BDFE3232703072F3305
:102BB0002B2B2B2B2B2B2B2B2B2B2B2B2C2C2C2C61
:102BC0002C2C2C2B2B2C2C2C2C2C2C9000E22290FF
:102BD00000E9229000EA229000B5229000B62290EF
:102BE00000B3229000B4229000B7229000CC229033
:102BF00000CD229001832290018A2290019222909E
:102C000001942290019F229001CB229002212290D8
:102C10000223229002242290022522900226229052
:102C200002272290006F229000702290022A2290A8
:102C3000029F229002A02290000022A28DE43390F5
:102C400002A4F0A28EE4339002A5F0229002A4E048
:102C5000FFA28DE433FEEFB50602803EA28DE43381
:102C60009002A4F09002A4E0FF601ABF012C7489C6
:102C7000C0E0743EC0E07480C0E01234411581159C
:102C800081158180157494C0E0743EC0E07480C0EA
:102C9000E01234411581158115819002A5E0FFA253
:102CA0008EE433FEEFB5060122A28EE4339002A536
:102CB000F09002A5E0FF6019BF012B749EC0E07484
:102CC0003EC0E07480C0E012344115811581158149
:102CD0002274A9C0E0743EC0E07480C0E0123441A8
:102CE00015811581158122AE82AF83BE4005BF7E5E
:102CF000028024BE4105BF7E028010BE4205BF7E19
:102D000002800CBE4315BF7E128008900001229005
:102D1000000222900003229000002290FFFF22AECA
:102D200082AF838E048F05BC4005BD7E028016BC39
:102D30004105BD7E02800EBC4205BD7E028006BC00
:102D40004317BD7E149002A4E0700A8E828F831216
:102D50002CE71222C77582002275820122AE82AF53
:102D6000839002A4E0FD600ABD010E8E828F830273
:102D7000110E8E828F8302205522AE82AF83900285
:102D8000A4E0FD600ABD010E8E828F8302114B8E7E
:102D9000828F8302213722AE82AF839002A4E0FDAE
:102DA000600ABD010E8E828F830211888E828F830E
:102DB000022213229002A4E0701FAE1AAF1BC3744C
:102DC000209E744E9F5012C2AF90006175F00012A9
:102DD000224CE4F51AF51BD2AF051AE4B51A020528
:102DE0001B220230B15380E35390F153B0875388D4
:102DF0007F53C0010230FD85824385834485F045C1
:102E0000E5427016AC4174F42C400A0540E4B5402C
:102E10000905418005E4F540F541E4FBFCF9FAF5CC
:102E200046F54785404885414974FC2549404AA8F4
:102E30004874042549FF5307078882EF24FCF58373
:102E4000C002C001123329AE82AF83E4C39EF546AF
:102E500074049FF547AE40AF415307078E82EF24BD
:102E6000FCF583123329AE82AF83D001D002E4C3D4
:102E70009EFB74049FFC022F1474F825494046AE53
:102E800048740755498E8224FCF583123329AE829B
:102E9000AF83E4C39EFB74049FFCAE40AF41740457
:102EA0002FFF5307078E82EF24FCF583C004C00375
:102EB000123329AE82AF83D003D004E4C39EF974E9
:102EC000049FFA804FAE4874042549FF5307078ECC
:102ED00082EF24FCF583C004C003123329AE82AF15
:102EE00083E4C39EF974049FFAAE40AF41530707D1
:102EF0008E82EF24FCF583C002C001123329AE821A
:102F0000AF83D001D002D003D004E4C39EF5467451
:102F1000049FF5478543828544838545F0123BA98C
:102F2000FF30E0047B007C04EF30E10479007A0498
:102F3000EF30E20675460075470474012543FDE451
:102F40003544FEAF458D828E838FF0123BA9FF7012
:102F500009FBFCF9FA8C46754704BF010D7B007C28
:102F60000079007A04E4F546F547BF020D79007A4E
:102F7000007B007C04E4F546F547BF030D79007A39
:102F8000047B007C04E4F546F547AE427F0075758E
:102F9000038F768E828F83C004C003C002C00112EB
:102FA0003BC5AE82AF83D001D002D003D004BE00B7
:102FB00005BF00028010BE0105BF0002801ABE02DC
:102FC0003BBF00388024D284D2C7D282D2B5D2B4DB
:102FD000D2918B068C078028D2C1D2C2D2C3D2C470
:102FE000D2C5D29289068A078016D283D2C6D28FE2
:102FF000D2B6D2B3D293AE46AF4780047E007F00F4
:103000008E828F831230167582002290FF80E053EB
:10301000E0DFF00230B1AE82AF83E4C39EFE740401
:103020009FFD8DC38ECE8DC48EC18DC58EC290FF87
:10303000EDEDF090FFD5EEF090FFECEDF090FFD4C9
:10304000EEF090FFEBEDF090FFD3EEF090FFEAEDA5
:10305000F090FFD2EEF090FFE9EDF090FFD1EEF0AE
:1030600090FFE8EDF090FFD0EEF090FFF3EDF090E0
:10307000FFDBEEF090FFF2EDF090FFDAEEF090FF64
:10308000F1EDF090FFD9EEF090FFF0EDF090FFD869
:10309000EEF090FFEFEDF090FFD7EEF090FFEEED49
:1030A000F090FFD6EEF090FFF9EDF090FFE1EEF03A
:1030B0002290FF8074CAF090FF817408F090FF8224
:1030C000F090FF83F090FF84F090FF85F090FF86F2
:1030D000748AF090FF877408F090FF88F090FF8961
:1030E000F090FF8AF090FF8BF090FF8C748AF09044
:1030F000FF917408F075DA8AF5DBF5DC2290FF8029
:103100007402F090FF81E4F090FF82F090FF83F072
:1031100090FF84F090FF85F090FF867402F090FF9E
:1031200087E4F090FF88F090FF89F090FF8AF0909C
:10313000FF8BF090FF8C7402F090FF91E4F075DA51
:1031400002F5DBF5DC22AF82BFA502800ABFA60232
:103150008009BFA70E8008900001229000022290F3
:1031600000042290000022AF82BFA8005003023268
:103170002CEF243D500302322CEF2458FF240A8305
:10318000F582EF241F83F583E473C0C4C8CCD0DC80
:10319000E4E8E0ECF0F40004080C101420D4D81893
:1031A0001CF8FC24283131313131313131313131A8
:1031B00031323232323232323131323231313232F4
:1031C0009000E2229000E9229000EA229000B522CD
:1031D0009000B6229000B3229000B4229000B72253
:1031E0009000CC229000CD229001832290018A226F
:1031F000900192229001942290019F229001CB2273
:103200009002212290022322900224229002252261
:10321000900226229002272290006F2290007022B6
:1032200090022A2290029F229002A0229000002267
:10323000AE82AF83BE445FBF7E5CE51C602B120E86
:1032400087E5825422601175123590002575F000D3
:10325000120DCC120A00803A75122990002575F0E3
:1032600000120DCC120A008029120E87E58254222A
:10327000601175133590002575F000120E04120AC6
:1032800000800F75132990002575F000120E0412AE
:103290000A007582002275820122AD82AE83AFF0F2
:1032A0008D7A8E7B8F7C85757D85767E85777FA8F0
:1032B00078A9798803890418B8FF0119EB4C6025B7
:1032C000857D82857E83857FF0123BA9FCA3858264
:1032D0007D85837E8D828E838FF0EC12330EA3ADBD
:1032E00082AE8380CE857A82857B83857CF022AC1A
:1032F00082AD83AE76AF77BE0004EF600C1F0FE5A2
:103300007512330EA3DEFADFF88C828D832220F74C
:103310001130F6138883A88220F509F6A8837583F7
:10332000002280FEF280F5F022E58330E707638219
:10333000FF6383FFA322E575457660467A01E57554
:1033400025E0F575E576334012F576E5829575E56D
:1033500083957640030A80E6C3E57613F576E57536
:1033600013F575C3E5829575F5F0E583957640050F
:10337000F58385F082C3E57613F576E57513F5756B
:10338000DAE12285827A85837B85F07CE578457950
:10339000700490000022AB78AC791BBBFF011CEBE2
:1033A0004C6048A87AA97BAA7C888289838AF0121B
:1033B0003BA9FF85757D85767E85777F857D8285B6
:1033C0007E83857FF0123BA9FEEFB5061E08B8008C
:1033D0000109887A897B8A7C7401257DFDE4357E2C
:1033E000FEAF7F8D758E768F7780AFAD7AAE7BAF77
:1033F0007C8D828E838FF0123BA9FD7F00AB75AC74
:1034000076AE778B828C838EF0123BA9FB7E00ED2B
:10341000C39BF582EF9EF58322C01E85811E7E0030
:103420008E83120FE8D01E2285825A85835B85F039
:103430005CE4F557F558F559851D5D903419023552
:1034400002C01EE581F51E24FBFF8F5DE4F557F5F4
:1034500058F559E51E24FBF8865A08865B08865CF9
:10346000903419123502D01E22AF82C04DC04EC01A
:103470004F1234768007C04BC04C8F8222158115C5
:103480008115810555E4B55502055622AF82743089
:103490002FFF24C6500B74072FFFE54A6003430734
:1034A000208F82023469E582FFC4540FF582C00781
:1034B00012348CD007740F5FF58202348C858275CC
:1034C000AB50AC51AD52AE53AA547577208A07EF7A
:1034D0002FF576EE2354014576FAEB2BFBEC33FC0B
:1034E000ED33FDEE33FEC3EA95754008EAC39575EA
:1034F000FA430301D577D68B508C518D528E538A67
:10350000542285824B85834C85574D85584E85596D
:103510004FE4F555F556AD5AAE5BAF5C8D828E83A8
:103520008FF0123BA9FC74012DF55AE43EF55B8F38
:103530005CECFF7003023B6DBF25028003023B651C
:10354000E4F55EF55FF560F561F562F563F564F548
:1035500065F567F568F569756AFF756BFFAC5AAD7F
:103560005BAE5C8C828D838EF0123BA9F56FA3ACB1
:1035700082AD838C5A8D5B8E5C7425B56F08856F28
:1035800082123469809074D0256F4003023627E59B
:103590006F24C6500302362774FFB56A4BB56B48DB
:1035A000C004C005C00685687585697690000AC0AC
:1035B00006C005C004123B8CAA82AB83D004D005A0
:1035C000D006AE6F7D00EE2AFAED3BFBEA24D0F583
:1035D00068EB34FFF569E5684569D006D005D0048D
:1035E0007081755F01023563C004C005C006856A3D
:1035F00075856B7690000AC006C005C004123B8C2E
:10360000AA82AB83D004D005D006AD6F7E00ED2A30
:10361000FAEE3BFBEA24D0F56AEB34FFF56BD006FB
:10362000D005D004023563742EB56F1574FFB56AEA
:1036300005B56B028003023563E4F56AF56B02356C
:1036400063749F256F500EE56F24854008536FDF2C
:10365000754A018003754A007420B56F030236F481
:10366000742BB56F030236EE742DB56F028079743A
:1036700042B56F030236FA7443B56F03023706741E
:1036800044B56F030238957446B56F030238AC74C5
:1036900048B56F030235637449B56F0302389574FA
:1036A0004AB56F03023563744CB56F028052744F94
:1036B000B56F0302389D7450B56F0302382A7453F6
:1036C000B56F0280627454B56F030235637455B5EB
:1036D0006F030238A27458B56F030238A7745AB545
:1036E0006F030235630238B1755E010235637560A0
:1036F000010235637561010235637563010235634B
:10370000756401023563E563600AE55D14F9895D5E
:103710008706800BE55D24FEFD8D5D8D0187068E9D
:10372000821234690238BDE55D24FDFE8E5D8E0196
:10373000870409870509870619198C508D518E5207
:103740008C828D838EF0123B7485827085837174B8
:10375000FFB56A09B56B0685706A85716BE55E70A9
:103760003DC3E5709568E57195695032E568C3958C
:1037700070F568E5699571F569AC68AB698C028B89
:10378000061CBCFF011BEA4E6010758220C004C0FD
:1037900003123469D003D00480E38C688B69AD6A6E
:1037A000AE6B8550828551838552F0123BA9FB6038
:1037B00033C3E49D74808EF063F08095F050251D36
:1037C000BDFF011E8B82C006C005123469D005D032
:1037D00006AA50AB51AC520ABA00010B8A508B5169
:1037E0008C5280BEE55E70030238BDC3E5709568FB
:1037F000E571956940030238BDE568C39570F568C9
:10380000E5699571F569AE68AD698E038D041EBEDC
:10381000FF011DEB4C70030238B9758220C006C051
:1038200005123469D005D00680E0E55D24FDFC8CEE
:103830005D8C01870209870309870419198A508B57
:10384000518C52AC52BC800040047B438014BC605D
:103850000040047B50800BBC400040047B49800248
:103860007B588B82C00312346975823A12346975B1
:103870008230123469758278123469D003BB4902F0
:10388000800BBB500280068551821234A68550827F
:103890001234A6802875620175670A802075670852
:1038A000801B75670A801675671080117565018029
:1038B0000C856F8212346980048E688D69E56560BD
:1038C0005BE55D24FCFE8E5D8E018703098704099C
:1038D00087050987061919198B508C518D528E5303
:1038E000755034755141755280855072855173857C
:1038F000527474012572FAE43573FBAE748A508BEE
:10390000518E528572828573838574F0123BA9FDB6
:1039100070030235168D8212346980CDE56770031D
:10392000023516E5636029E55D14F9895D87067D3A
:10393000007C007B008E508D518C528B53E5627061
:1039400063AB50FCFDFE8B508C518D528E538054D6
:10395000E5646021E55D24FCFE8E5D8E0187030930
:1039600087040987050987061919198B508C518D11
:10397000528E53802FE55D24FEFE8E5D8E018705FD
:1039800009870619EE3395E0FCFB8D508E518C5261
:103990008B53E562700EAB50AC51FDFE8B508C51D9
:1039A0008D528E53E5626023E55330E71BC3E495E7
:1039B00050FBE49551FCE49552FDE49553FE8B5089
:1039C0008C518D528E538003756200756601798526
:1039D0007D007E00755400856782C006C005C00169
:1039E0001234BDD001D005D006E5667013E554C48D
:1039F00054F0FCE554C4540F4204E74CF71980021C
:103A0000A7540DBD00010EE566B40100E433F56670
:103A1000E55045514552455370BA896E8D6C8E6D97
:103A2000E56845697005756801F569E55F702DE524
:103A30005E7029AA68AB69AC6C0C7E00C3EC9AEE90
:103A40009B5015758220C003C002123469D002D089
:103A5000031ABAFF011B80DF8A688B69E562601177
:103A600075822D123469156874FFB5680215698076
:103A70002EE56C456D6028E560601175822B12346F
:103A800069156874FFB5680215698013E561600FF8
:103A9000758220123469156874FFB568021569E5EE
:103AA0005E702FAE68AD698E038D041EBEFF011DD2
:103AB000C3E56C9BE56D9C503AE55F60047C30800B
:103AC000027C208C82C006C005123469D005D00665
:103AD00080D5C3E56C9568E56D9569500FE568C3C1
:103AE000956CF568E569956DF569800BE4F568F509
:103AF0006980048E688D69A96EAD6CAE6D8D038E84
:103B0000041DBDFF011EEB4C6030E566B40100E40E
:103B100033F566700A09E7C4540FFC8C548007879C
:103B200004740F5CF554855482C006C005C00112B0
:103B3000348CD001D005D00680C3E55E7003023519
:103B400016AD68AE698D038E041DBDFF011EEB4CE2
:103B50007003023516758220C006C005123469D084
:103B600005D00680E08F82123469023516855582B1
:103B700085568322AA82AB83123BA96003A380F8F7
:103B8000C3E5829AF582E5839BF58322E5828575FC
:103B9000F0A4C582C0F08576F0A4D0F025F0C583EE
:103BA0008575F0A42583F5832220F71430F6148858
:103BB00083A88220F507E6A88375830022E280F7B8
:103BC000E49322E022C2D5E58330E70DD2D5E4C3E9
:103BD0009582F582E49583F583E57630E70BE4C3BF
:103BE0009575F575E49576F57612333630D50BE498
:103BF000C39582F582E49583F58322758200225372
:103C00004D4B2076616C7068610D0A004445564941
:103C10004345207649643A307830356163207049F5
:103C2000643A3078303234660A0D004B45593A20F8
:103C30003078253034782025730D0A005550004423
:103C40004F574E004348414E474544204C4159454B
:103C5000523A2025640D0A00554E5245434F474EB7
:103C6000495A4544204B45593A203078253034781C
:103C70000D0A006164645F6B65795F6269743A2064
:103C800063616E2774206164643A20253032580ADB
:103C90000064656C5F6B65795F6269743A2063618B
:103CA0006E27742064656C3A20253032580A00056E
:103CB000010906A101050719E029E715002501758D
:103CC00001950881027508950181010507190029F0
:103CD000FF150026FF0075089506810005081901EB
:103CE00029051500250175019505910275039501BA
:103CF0009101C005010980A1018501198129831560
:103D000000250175019503810295058101C0050C0F
:103D10000901A101850219002A3C021500263C0276
:103D2000751095018100C00600FF0901A1018505FC
:103D300019012902150026FF0075089505B102C07A
:103D400005010906A1018506050719E029E7150007
:103D5000250175019508810205071900299F1500A5
:103D60002501750195A08102C0120110010000001B
:103D700008AC054F02000001020301090400000124
:103D800003010100092111010001224400070581FE
:103D900003100001090401000103000000092111C2
:103DA000010001227600070582034000010902009C
:103DB00000020100A0FA7B3D843D8D3D943D9D3D78
:103DC000A63D0000AD3D04030904273E3E3E4B3EA8
:103DD000693D000001C43D03CA3D2573206275663C
:103DE00066657220746F6F206C6F6E673A20256471
:103DF000007365745F6570305F696E5F62756666DB
:103E00006572007365745F6570315F696E5F6275BE
:103E100066666572007365745F6570325F696E5FB8
:103E200062756666657200636F6E74616374406389
:103E300061726C6F73736C6573732E696F00534D91
:103E40004B204B6579626F61726400303030310015
:103E5000697320626C616E6B3A2025640D0A0072F2
:103E600066206C696E6B206368616E6765643A20DA
:103E700025640D0A00534D4B204254352E3000531B
:103E80004D4B204254332E30005553425F4D4F442A
:103E9000450D0A0052465F4D4F44450D0A004D4105
:103EA000435F4D4F44450D0A0057494E5F4D4F4407
:103EB000450D0A00447E1E001F0020002100220044
:103EC000230024002500260027002D002E002A00B4
:103ED000000000002B0014001A0008001500170055
:103EE0001C0018000C00120013002F0030003100DD
:103EF00000000000390004001600070009000A0055
:103F00000B000D000E000F003300340000002800ED
:103F100000000000E1001D001B0006001900050064
:103F20001100100036003700380000000000E500E6
:103F300052004C00E000E300E200000000002C0012
:103F400000000000E3002252500000000000510079
:103F50004F000000447E1E001F00200021002200B0
:103F6000230024002500260027002D002E002A0013
:103F7000000000002B0014001A00080015001700B4
:103F80001C0018000C00120013002F00300031003C
:103F900000000000390004001600070009000A00B4
:103FA0000B000D000E000F0033003400000028004D
:103FB00000000000E1001D001B00060019000500C4
:103FC0001100100036003700380000000000E50046
:103FD00052004C00E000E200E300000000002C0072
:103FE00000000000E30023525000000000005100D8
:103FF0004F0000003500BE00BD00C100C0000378C6
:104000000478BC00AE00BB00A800AA00A9004C00C8
:10401000000000000100417E427E437E407E0100A0
:104020000100010001000100010001000100010088
:10403000000000000100010001000100010001007A
:104040000100010001000100010001000000010069
:10405000000000000100010001000100010001005A
:10406000010001000100010001000000000001004A
:10407000010001000100010001000000000001003A
:10408000000000000100010001000000000001002C
:104090000100000035003A003B003C003D003E00BE
:1040A0003F004000410042004300440045004C00F6
:1040B000000000000100417E427E437E407E010000
:1040C00001000100010001000100010001000100E8
:1040D00000000000010001000100010001000100DA
:1040E00001000100010001000100010000000100C9
:1040F00000000000010001000100010001000100BA
:1041000001000100010001000100000000000100A9
:104110000100010001000100010000000000010099
:10412000000000000100010001000000000001008B
:10413000010000003C4E4F20464C4F41543E0000D1
:10414000000000000000000000000000000000006F
:10415000000000000000000000000000000000005F
:10416000000000000000000000000000000000004F
:10417000000000000000000000000000000000003F
:00000001FF
